:060000000A128A110C280F
:10000800FE00030EF1000A08F2000A128A11832F7B
:100018000A128A110F28831603130A128A11F2276B
:100028000A128A11BA00B501B601B701B801B901BF
:10003800F801F901FA0183010A128A11C42E831208
:10004800031347088039CC004C08D1004708CC007E
:100058004C07CD004D08D700C61F33283428352853
:1000680057145708031939283A284928570A031DED
:100078003E283F2847280030C7000030C60000301F
:10008800C5000030C400C61751280030C700003032
:10009800C6000030C5000030C4004B088039CC00D1
:1000A8004C08D1064B08CC004C07CD004D08D200B7
:1000B800CA1F5F286028612852145208031965284E
:1000C80066287528520A031D6A286B287328003091
:1000D800CB000030CA000030C9000030C800CA1781
:1000E8007D280030CB000030CA000030C900003045
:1000F800C800520803198128822887285708031D39
:100108008628872890280030C7000030C6000030B5
:10011800C5000030C400832B4408CC004C08F30011
:100128004A080A128A11C9270A128A117408831206
:100138000313DD007308DC005C08CC00CD01CE01A0
:10014800CF014F08D6004E08D5004D08D4004C0802
:10015800D3005D08CC00CD01CE01CF014F08DB00F4
:100168004E08DA004D08D9004C08D8004508CC00E4
:100178004C08F30049080A128A11C9270A128A1181
:10018800740883120313DD007308DC005C08CC00DC
:10019800CD01CE01CF014C08D3074D080311031838
:1001A800013E0319D828D4074E0803110318013E4D
:1001B8000319DF28D5074F0803110318013E031957
:1001C800E628D6075D08CC00CD01CE01CF014C084A
:1001D800D8074D0803110318013E0319F428D9075D
:1001E8004E0803110318013E0319FB28DA074F08CC
:1001F80003110318013E03190229DB074608CC0046
:100208004C08F30048080A128A11C9270A128A11F1
:10021800740883120313DD007308DC005C08CC004B
:10022800CD01CE01CF014C08D3074D0803110318A7
:10023800013E03192029D4074E0803110318013E73
:1002480003192729D5074F0803110318013E03197D
:100258002E29D6075D08CC00CD01CE01CF014C0870
:10026800D8074D0803110318013E03193C29D90783
:100278004E0803110318013E03194329DA074F08F2
:1002880003110318013E03194A29DB070830CC0083
:100298000310D30DD40DD50DD60DCC0B4C29450824
:1002A800CC004C08F30048080A128A11C9270A1220
:1002B8008A11740883120313DD007308DC005C08DC
:1002C800CC005D08CD00CE01CF014C08D3074D0806
:1002D80003110318013E03197229D4074E080311AC
:1002E8000318013E03197929D5074F08031103188C
:1002F800013E03198029D6074408CC004C08F300B6
:1003080049080A128A11C9270A128A117408831225
:100318000313DD007308DC005C08CC005D08CD0029
:10032800CE01CF014C08D3074D0803110318013E35
:1003380003199F29D4074E0803110318013E031916
:10034800A629D5074F0803110318013E0319AD2943
:10035800D6070830CC000310D30DD40DD50DD60D1B
:10036800CC0BAF294408CC004C08F30048080A120B
:100378008A11C9270A128A11740883120313DD002F
:100388007308DC005C08CC005D08CD00CE01CF010D
:100398004C08D3074D0803110318013E0319D5294A
:1003A800D4074E0803110318013E0319DC29D507A9
:1003B8004F0803110318013E0319E329D60745081E
:1003C800CC004C08F3004A080A128A11C9270A12FD
:1003D8008A11740883120313DD007308DC005C08BB
:1003E800CC005D08CD00CE01CF014C08D8074D08E0
:1003F80003110318013E0319022AD9074E080311F5
:100408000318013E0319092ADA074F0803110318D4
:10041800013E0319102ADB074608CC004C08F300FC
:1004280049080A128A11C9270A128A117408831204
:100438000313DD007308DC005C08CC005D08CD0008
:10044800CE01CF014C08D8074D0803110318013E0F
:1004580003192F2AD9074E0803110318013E03195F
:10046800362ADA074F0803110318013E03193D2AFB
:10047800DB074608CC004C08F3004A080A128A1128
:10048800C9270A128A11740883120313DD0073083E
:10049800DC005C08CC005D08CD00CE01CF0108303F
:1004A8000310CC0DCD0DCE0DCF0DFF3E031D542AEC
:1004B8004C08D8074D0803110318013E0319652A93
:1004C800D9074E0803110318013E03196C2ADA07ED
:1004D8004F0803110318013E0319732ADB07530859
:1004E800CC005408CD005508CE005608CF0018306F
:1004F8000310CF0CCE0CCD0CCC0CFF3E031D7C2A78
:100508004C08D8074D0803110318013E03198D2A1A
:10051800D9074E0803110318013E0319942ADA0774
:100528004F0803110318013E03199B2ADB07083003
:10053800CC000310D30DD40DD50DD60DCC0B9D2AB0
:1005480057085207CC00CD01CD0D4C08823EDC0087
:100558004D080318013EFF3EDD00CF2A0130CC00D4
:100568000310D80DD90DDA0DDB0DCC0BB42AD61F2C
:10057800BE2ABF2AC02A58140130CC000310D30D5C
:10058800D40DD50DD60DCC0BC22AFF30DC070318CD
:10059800DD0AFF30DD07DA1FD22AD32AB22AD201B8
:1005A800D61FD72AD82AF42AFF305305CC00FF30AB
:1005B8005405CD00FF305505CE007F305605CF00DD
:1005C8004F084E044D044C040319EB2AEC2AEF2A79
:1005D800D201D20AF42A581CF22AF32AF42AEC2A65
:1005E80052080319F82AF92A2A2B0130D8070030B3
:1005F80003180130D907003003180130DA0700303A
:1006080003180130DB075B1C0A2B0B2B2A2B58081D
:10061800CC005908CD005A08CE005B08CF00013045
:10062800D0004F0DCF0CCE0CCD0CCC0CD00B152B15
:100638004F08DB004E08DA004D08D9004C08D800F6
:100648000130DC070318DD0A0030DD075D08803A59
:10065800FF0080307F02031D332BFF305C02031C38
:10066800362B372B422B7F3083120313DB0080306D
:10067800DA000030D9000030D800772B831203133A
:100688005D08803AFF0080307F02031D4D2B01304A
:100698005C020318502B512B5D2B0030831203137F
:1006A800DB000030DA000030D9000030D800D1017A
:1006B800772B831203135C08CC004C08D700FF305B
:1006C800D805FF30D9057F30DA050030DB05571C27
:1006D8006E2B6F2B702BDA175708CC0003104C0CBD
:1006E800CD004D08DB005108CC004C08DB045B084A
:1006F800C7005A08C6005908C5005808C4000800B1
:100708008312031361088039E60066088316031311
:10071800A000831203136108E6006607E700670874
:1007280083160313A20083120313E01F9C2B9D2B37
:10073800A02B83160313221483160313220803190C
:10074800A62BA72BBA2B220A031DAB2BAC2BB62B3F
:10075800003083120313E1000030E0000030DF00B6
:100768000030DE008312E017E101C42B0030831251
:100778000313E1000030E0000030DF000030DE004D
:1007880065088039E600660883160313A10021086E
:1007980020060319D02BD12BD22B20178312031339
:1007A8006508E6006607E700670883160313A100DB
:1007B80083120313E41FE12BE22BE52B83160313AB
:1007C80021148316031321080319EB2BEC2BFF2BA1
:1007D800210A031DF02BF12BFB2B0030831203138E
:1007E800E5000030E4000030E3000030E20083124E
:1007F800E417E501092C003083120313E5000030EB
:10080800E4000030E3000030E200831603132208FE
:1008180021020318102C112C872C201F142C152CA6
:100828001D2C803083120313E60066088316031319
:10083800A006220883120313E60066088316031332
:10084800A300210883120313E60066088316031326
:10085800A200230883120313E60066088316031315
:10086800A100831203135E08E600660883160313CB
:10087800A300831203136208E6006608DE008316ED
:100888000313230883120313E6006608E2005F08D7
:10089800E600660883160313A30083120313630894
:1008A800E6006608DF008316031323088312031388
:1008B800E6006608E3006008E6006608831603138E
:1008C800A300831203136408E6006608E000831699
:1008D8000313230883120313E6006608E400610883
:1008E800E600660883160313A30083120313650842
:1008F800E6006608E1008316031323088312031336
:10090800E6006608E50083160313A3012108831295
:100918000313E600E7016708E900831603132208BA
:10092800831203136602E800031CE9036908803A8E
:10093800FF0080307F02031DA32C1A306802031CBD
:10094800A62CA72CF92C83120313610860045F04FA
:100958005E04031DB02CB22C0130B32C0030E6002D
:10096800660883160313A300003083120313E10003
:100978000030E0000030DF000030DE008316031393
:10098800210883120313E600660883160313A200E6
:10099800012D231CD02CD12CDE2C23088312031309
:1009A800E6000310660C0138E70067088316031396
:1009B800A300E02C0310A30C831203135E1CE52C88
:1009C800E62CE92C83160313A31701308312E600E3
:1009D800610DE10CE00CDF0CDE0CE60BEC2C0130B9
:1009E800E600660883160313A2078316031321087B
:1009F8002202031C002D012DCD2C201B042D052DBA
:100A0800612D2208031D092D0A2D152D0030831292
:100A18000313E1000030E0000030DF000030DE00AA
:100A2800C32E831203136208DE0763080311031839
:100A3800013E0319202DDF07640803110318013E46
:100A48000319272DE007650803110318013E031950
:100A58002E2DE107611C312D322D272E831603130D
:100A6800231C372D382D452D230883120313E60048
:100A78000310660C0138E700670883160313A30008
:100A8800472D0310A30C831203135E1C4C2D4D2D10
:100A9800502D83160313A31701308312E600610D4E
:100AA800E10CE00CDF0CDE0CE60B532D0130E60008
:100AB800660883160313A207272E831203136108FF
:100AC800803AFF006508803A7F02031D752D64088F
:100AD8006002031D752D63085F02031D752D6208F2
:100AE8005E020318782D792DD52DFF30E600FF30F2
:100AF800E700FF30E800FF30E9006208EA00630819
:100B0800EB006408EC006508ED005E08EA025F0887
:100B1800031C5F0F902D912DEB026008031C600FE2
:100B2800962D972DEC026108031C610F9C2D9D2DBD
:100B3800ED026A08E6076B0803186B0FA42DA52DB4
:100B4800E7076C0803186C0FAA2DAB2DE8076D0892
:100B580003186D0AE9076908E1006808E0006708FA
:100B6800DF006608DE008030E6006608831603139F
:100B7800A006A309A30A2308031DC32DC42DE32D32
:100B8800013083120313DE07003003180130DF073A
:100B9800003003180130E007003003180130E10786
:100BA800E32D6208DE026308031C630FDF0264089A
:100BB800031C640FE0026508031C650FE102831241
:100BC800610860045F045E04031DEB2DEC2D222EEA
:100BD800831603132308031DF22DF32D222E003054
:100BE80083120313E1000030E0000030DF00003022
:100BF800DE00C32E0130E6000310DE0DDF0DE00D30
:100C0800E10DE60B002E83160313A31F0C2E0D2EE9
:100C1800102E831203135E1483160313231C152E40
:100C2800162E192E0314A30D1B2E0310A30D220834
:100C380003191F2E202E222E0130A2028312E01F3C
:100C4800262E272EFE2D83160313A101A31F2D2E5A
:100C58002E2E402E23087F390319332E342E392E99
:100C680083160313A101A10A402E831203135E1CED
:100C78003E2E3F2E402E342E8316031321080319CF
:100C8800462E472E832E013083120313DE070030D1
:100C980003180130DF07003003180130E007003087
:100CA80003180130E107611C5A2E5B2E832E5E0863
:100CB800E6005F08E7006008E8006108E900013025
:100CC800EA00690DE90CE80CE70CE60CEA0B652E66
:100CD8006908E1006808E0006708DF006608DE00D0
:100CE80083160313220A03197A2E7B2E832E0130D2
:100CF80083120313E600660883160313A2078316FC
:100D08000313220A0319892E8A2E8F2E2208031D07
:100D18008E2E8F2EA12E003083120313E100003097
:100D2800E0000030DF000030DE00831603132208E5
:100D3800031D9F2EA02EA12EA001221CA42EA52E9D
:100D4800A92E83120313E017AF2E7F3083120313EB
:100D5800E6006608E00583160313220883120313CE
:100D6800E6000310660CE7006708E100831603132A
:100D7800A01FBF2EC02EC32E83120313E117080035
:100D88000A128A1596230A128A1183120313861EE1
:100D9800CE2ECF2E432F9F18D22ED32ED42E9F1473
:100DA8000517043083160313B4003D30B300B30BAA
:100DB800DB2EB40BDB2E83120313051304308316CA
:100DC8000313B4003D30B300B30BE82EB40BE82E88
:100DD80083160313390837060319F32EF42E022F4E
:100DE800390883120313930083160313141CFD2E72
:100DF800FE2EF82E3908B3003308B7008312031308
:100E08000517043083160313B4003D30B300B30B49
:100E18000B2FB40B0B2F8312031385170430831683
:100E28000313B4003D30B300B30B182FB40B182FC5
:100E3800831203138513043083160313B4003D3063
:100E4800B300B30B252FB40B252FFF3083120313E8
:100E5800930083160313141C322F332F2D2F831264
:100E68000313130888008517043083160313B4008E
:100E78003D30B300B30B3E2FB40B3E2FC92E831663
:100E88000313AD01FF30B3003308AE000530AF00E7
:100E98000030B0003230B1000030B20083120313CA
:100EA80008080A128A15B1240A128A118316031334
:100EB8002E08B6002D08B5003608B4003508B30072
:100EC8000310B40CB30C0310B40CB30C3308831226
:100ED800031395008316031335080339B300B30EC3
:100EE800831203131708831603133306CF39330607
:100EF800831203139700C92E0A128A110C28831231
:100F08000313861E882F892F972F0C1F8C2F8D2F48
:100F1800C22F1E08F000700883160313B90083124D
:100F280003130C13C22F8C1D9A2F9B2FAD2F130860
:100F3800F0007008F900790A0319A32FA42FA92F2C
:100F48007908880078089300AB2F780893008C11F3
:100F5800C22F0B1CB02FB12FC22F0618B42FB52FDC
:100F6800BA2F0130F0007008F807C02F8618BD2F7F
:100F7800BE2FC02F0130F8020B10C22F72088A0052
:100F8800710E8300FE0E7E0E090083120313A40067
:100F9800A001A1017308F500F6017508A200760802
:100FA800A300241CD82FD92FDF2F2208A00703184D
:100FB800A10A2308A10701300310A20DA30DFF3ECB
:100FC800031DE02F0310A40C2408031DEC2FED2FA4
:0E0FD800D52F2108F4002008F3000800FF3494
:10172C0001308316031788008901213083160313B7
:10173C008500831203138501FF3083160313860083
:10174C008801831203138801831603130F088F3942
:10175C0040388F000F1483120313861EB62BB72B41
:10176C00E72B1030831603138700831203138701B2
:10177C00F03094051412941683160313141794174F
:10178C0039088312031393003F309F05831603130C
:10179C001F129F12C330831203139F05831603136A
:1017AC009F13831203131F140330F300F30BDC2B72
:1017BC00831203130C13831603130C170B178B17BD
:1017CC001E2C183083160313870083120313870112
:1017DC001408F03904389400141294168316031369
:1017EC001417941307153E309200831203139701BC
:1017FC003F3097051708F0390C38970001309500E9
:10180C001708CF39103897008C100330920412153A
:10181C008C10831603130711831203138C11831678
:10182C0003138C150B178B178B15033096000B10AD
:10183C000800031083160313260D270DA800280893
:10184C0083120313EF006F08031D2D2C2E2C392C43
:10185C00003083160313A7000030A6000030A5004B
:10186C000030A400B02C831603132408A80025080C
:10187C00A9002608AA002708AB001F300310AB0CE8
:10188C00AA0CA90CA80CFF3E031D442C2808AC0084
:10189C002C0883120313EE0083160313A617FF30D4
:1018AC00A405FF30A505FF30A6050030A70596302E
:1018BC0083120313EF02EF1F642C652C832C6F082B
:1018CC00803A973E03186B2C6C2C6D2C2E2C01300F
:1018DC00031083160313A70CA60CA50CA40CFF3E37
:1018EC00031D6E2C0130A800280883120313EF0788
:1018FC00031D812C822C6D2C9E2C20306F02031C1E
:10190C00882C892C992C2E2C013083160313A800BB
:10191C000310A40DA50DA60DA70DA80B8E2C013040
:10192C0083120313EF026F08031D9D2C9E2C8A2C2F
:10193C006E080319A22CA32CB02C83160313A40934
:10194C00A509A609A709A40A0319A50A0319A60A39
:10195C000319A70A0800F700831603132F08F300D6
:10196C003008F400F501F60100300A128A156725DB
:10197C000A128A15760883120313E5007508E40031
:10198C007408E3007308E200831603132F08310276
:10199C00F3003008031C300A3202F400F501F601A2
:1019AC0000300A128A1567250A128A1576088312E6
:1019BC000313B1007508B0007408AF007308AE00D3
:1019CC00831603132D082E02F300F401031CF403F9
:1019DC00F501F41BF5037508F60001300A128A159F
:1019EC0067250A128A15760883120313AD00750851
:1019FC00AC007408AB007308AA000A128A152326DF
:101A0C000A128A15831203132D08CB002C08CA0066
:101A1C002B08C9002A08C800831603132D08770267
:101A2C00F300F401031CF403F501F41BF503750832
:101A3C00F60001300A128A1567250A128A157608F3
:101A4C0083120313C7007508C6007408C500730819
:101A5C00C4000A128A1123200A128A158312031356
:101A6C004708E1004608E0004508DF004408DE00B6
:101A7C000A128A1184230A128A158312031361082D
:101A8C0083160313A7008312031360088316031332
:101A9C00A600831203135F0883160313A500831299
:101AAC0003135E0883160313A4000A128A151F245D
:101ABC000A128A15831603132508AE002408AD00FC
:101ACC00080083120313A400240803196E2D6F2D34
:101ADC00832DF61F722D732D832D7309A6007409A7
:101AEC00A7007509A8007609A900A60A0319A70A78
:101AFC000319A80A0319A90A8B2D7608A9007508E1
:101B0C00A8007408A7007308A6007608750474046E
:101B1C007304031D922D932D9C2D0030F600003084
:101B2C00F5000030F4000030F300222E9630A000B7
:101B3C002008A500AE2D0130A0002008A50701301B
:101B4C000310A90CA80CA70CA60CFF3E031DA62D78
:101B5C00FE302905031DB32DB42DA12DD02D013040
:101B6C00A0002008A5070130A6070030031801309B
:101B7C00A707003003180130A80700300318013004
:101B8C00A90701300310A90CA80CA70CA60CFF3E4A
:101B9C00031DC82DFF302905031DD52DD62DB52DC0
:101BAC00E22D0130A5020130A0000310A60DA70DF7
:101BBC00A80DA90DA00BDB2DA81BE52DE62DEC2DFA
:101BCC00023025020318EB2DEC2DD72D2518EF2D07
:101BDC00F02DF82DFF30A605FF30A7057F30A805A6
:101BEC00FF30A9050310A50C2508A000A101A20136
:101BFC00A30118300310A00DA10DA20DA30DFF3EE3
:101C0C00031D002E2008A6042108A7042208A804FE
:101C1C002308A90424080319142E152E1A2EF61FB6
:101C2C00182E192E1A2EA9172908F6002808F500C7
:101C3C002708F4002608F300080083120313310868
:101C4C008039B2003208BB003108B2003207B30051
:101C5C003308C200B01F332E342E352E42144208E6
:101C6C000319392E3A2E4A2E420A031D3E2E3F2EC0
:101C7C00472E0030B1000030B0000030AF00003013
:101C8C00AE00B017B101522E0030B1000030B000E0
:101C9C000030AF000030AE002D088039B2003208A1
:101CAC00BB062D08B2003207B3003308C300AC1FCB
:101CBC00602E612E622E431443080319662E672E84
:101CCC00772E430A031D6B2E6C2E742E0030AD0044
:101CDC000030AC000030AB000030AA00AC17AD01F6
:101CEC007F2E0030AD000030AC000030AB00003077
:101CFC00AA002D082C042B042A04031D862E872EE3
:101D0C00A02E0030B1000030B0000030AF00003029
:101D1C00AE008030B0047F30B1043B08B200320812
:101D2C00B1043108AD003008AC002F08AB002E0810
:101D3C00AA00FF2F4208031DA42EA52EAE2E0030A4
:101D4C00AD000030AC000030AB000030AA00FF2F1B
:101D5C004208B200B3013308B50043083202B400A4
:101D6C00031CB50334087F3EBC0035080318013E44
:101D7C00003EBD003108BA003008B9002F08B80089
:101D8C002E08B7000030B1000030B0000030AF00BA
:101D9C000030AE000030C1000030C0000030BF0089
:101DAC000030BE00C301242F43080319DE2EDF2EA2
:101DBC00FF2E0130B2000310B70DB80DB90DBA0DDE
:101DCC00B20BE12E0130B2000310AE0DAF0DB00D11
:101DDC00B10DB20BEA2EC11FF42EF52EF62E2E14D9
:101DEC000130B2000310BE0DBF0DC00DC10DB20B02
:101DFC00F82E2D083A02031D0D2F2C083902031D55
:101E0C000D2F2B083802031D0D2F2A083702031C37
:101E1C00102F112F202F41172A08B7022B08031C53
:101E2C002B0FB8022C08031C2C0FB9022D08031C15
:101E3C002D0FBA020130B2003208C3071A30430228
:101E4C00031C292F2A2FDA2E3A08390438043704B8
:101E5C000319312F322F512F3E14512F0130B20064
:101E6C000310AE0DAF0DB00DB10DB20B362FC11F5F
:101E7C00402F412F422F2E140130B2000310BE0D03
:101E8C00BF0DC00DC10DB20B442FFF30BC070318A2
:101E9C00BD0AFF30BD07B01F542F552F342FC3017F
:101EAC00C11F592F5A2F762FFF303E05B200FF303D
:101EBC003F05B300FF304005B4007F304105B5004D
:101ECC00350834043304320403196D2F6E2F712F2F
:101EDC00C301C30A762F2E1C742F752F762F6E2FED
:101EEC00430803197A2F7B2FAC2F0130AE0700303B
:101EFC0003180130AF07003003180130B007003071
:101F0C0003180130B107311C8C2F8D2FAC2F2E08EC
:101F1C00B2002F08B3003008B4003108B50001300E
:101F2C00B600350DB50CB40CB30CB20CB60B972F28
:101F3C003508B1003408B0003308AF003208AE00E9
:101F4C000130BC070318BD0A0030BD073D08803ABC
:101F5C00FF0080307F02031DB52FFF303C02031CB5
:101F6C00B82FB92FC72FFF3083120313BC000030DA
:101F7C00BD000030B1000030B0000030AF000030C8
:101F8C00AE00831203133D08803AFF0080307F02BD
:101F9C00031DD22F01303C020318D52FD62FE32F6F
:101FAC0083120313BC01BD010030B1000030B0003E
:101FBC000030AF000030AE00BB01831203133C08AD
:101FCC00B2003208C200421CEC2FED2FEF2FB017DD
:101FDC00F32F7F30B2003208B0054208B200031074
:101FEC00320CB3003308B1003B08B2003208B10424
:041FFC00972E080014
:08400000FF3FFF3FFF3FFF3FC0
:04400E00D420FF3F7C
:00000001FF
